{
  "_format": "hh-sol-artifact-1",
  "contractName": "TodoList",
  "sourceName": "contracts/TodoList.sol",
  "abi": [
    {
      "inputs": [],
      "stateMutability": "nonpayable",
      "type": "constructor"
    },
    {
      "anonymous": false,
      "inputs": [
        {
          "indexed": false,
          "internalType": "uint256",
          "name": "id",
          "type": "uint256"
        },
        {
          "indexed": false,
          "internalType": "string",
          "name": "taskName",
          "type": "string"
        },
        {
          "indexed": false,
          "internalType": "enum TodoList.TaskStatusEnum",
          "name": "status",
          "type": "uint8"
        }
      ],
      "name": "TaskCreate",
      "type": "event"
    },
    {
      "anonymous": false,
      "inputs": [
        {
          "indexed": false,
          "internalType": "uint256",
          "name": "id",
          "type": "uint256"
        },
        {
          "indexed": false,
          "internalType": "enum TodoList.TaskStatusEnum",
          "name": "status",
          "type": "uint8"
        }
      ],
      "name": "TaskStatus",
      "type": "event"
    },
    {
      "inputs": [
        {
          "internalType": "uint256",
          "name": "_id",
          "type": "uint256"
        }
      ],
      "name": "cancel",
      "outputs": [],
      "stateMutability": "nonpayable",
      "type": "function"
    },
    {
      "inputs": [
        {
          "internalType": "string",
          "name": "_taskName",
          "type": "string"
        }
      ],
      "name": "createTask",
      "outputs": [],
      "stateMutability": "nonpayable",
      "type": "function"
    },
    {
      "inputs": [
        {
          "internalType": "uint256",
          "name": "_id",
          "type": "uint256"
        }
      ],
      "name": "finish",
      "outputs": [],
      "stateMutability": "nonpayable",
      "type": "function"
    },
    {
      "inputs": [
        {
          "internalType": "uint256",
          "name": "_id",
          "type": "uint256"
        }
      ],
      "name": "getStatus",
      "outputs": [],
      "stateMutability": "nonpayable",
      "type": "function"
    },
    {
      "inputs": [
        {
          "internalType": "uint256",
          "name": "_id",
          "type": "uint256"
        }
      ],
      "name": "handling",
      "outputs": [],
      "stateMutability": "nonpayable",
      "type": "function"
    },
    {
      "inputs": [],
      "name": "taskCount",
      "outputs": [
        {
          "internalType": "uint256",
          "name": "",
          "type": "uint256"
        }
      ],
      "stateMutability": "view",
      "type": "function"
    },
    {
      "inputs": [
        {
          "internalType": "uint256",
          "name": "",
          "type": "uint256"
        }
      ],
      "name": "tasks",
      "outputs": [
        {
          "internalType": "uint256",
          "name": "id",
          "type": "uint256"
        },
        {
          "internalType": "string",
          "name": "taskname",
          "type": "string"
        },
        {
          "internalType": "enum TodoList.TaskStatusEnum",
          "name": "status",
          "type": "uint8"
        }
      ],
      "stateMutability": "view",
      "type": "function"
    }
  ],
  "bytecode": "0x60806040526000805534801561001457600080fd5b506100596040518060400160405280601281526020017f546f646f204c697374205475746f7269616c000000000000000000000000000081525061005e60201b60201c565b610635565b6000808154809291906100709061018c565b9190505550600060405180606001604052806000548152602001838152602001600060038111156100a4576100a36101d4565b5b81525090508060016000805481526020019081526020016000206000820151816000015560208201518160010190816100dd9190610449565b5060408201518160020160006101000a81548160ff02191690836003811115610109576101086101d4565b5b02179055509050507faaba9ffdeceb18cc0d591978961e2f699de6aa4f92d39d4d5556479b66075362600054836000604051610147939291906105f7565b60405180910390a15050565b7f4e487b7100000000000000000000000000000000000000000000000000000000600052601160045260246000fd5b6000819050919050565b600061019782610182565b91507fffffffffffffffffffffffffffffffffffffffffffffffffffffffffffffffff82036101c9576101c8610153565b5b600182019050919050565b7f4e487b7100000000000000000000000000000000000000000000000000000000600052602160045260246000fd5b600081519050919050565b7f4e487b7100000000000000000000000000000000000000000000000000000000600052604160045260246000fd5b7f4e487b7100000000000000000000000000000000000000000000000000000000600052602260045260246000fd5b6000600282049050600182168061028457607f821691505b6020821081036102975761029661023d565b5b50919050565b60008190508160005260206000209050919050565b60006020601f8301049050919050565b600082821b905092915050565b6000600883026102ff7fffffffffffffffffffffffffffffffffffffffffffffffffffffffffffffffff826102c2565b61030986836102c2565b95508019841693508086168417925050509392505050565b6000819050919050565b600061034661034161033c84610182565b610321565b610182565b9050919050565b6000819050919050565b6103608361032b565b61037461036c8261034d565b8484546102cf565b825550505050565b600090565b61038961037c565b610394818484610357565b505050565b5b818110156103b8576103ad600082610381565b60018101905061039a565b5050565b601f8211156103fd576103ce8161029d565b6103d7846102b2565b810160208510156103e6578190505b6103fa6103f2856102b2565b830182610399565b50505b505050565b600082821c905092915050565b600061042060001984600802610402565b1980831691505092915050565b6000610439838361040f565b9150826002028217905092915050565b61045282610203565b67ffffffffffffffff81111561046b5761046a61020e565b5b610475825461026c565b6104808282856103bc565b600060209050601f8311600181146104b357600084156104a1578287015190505b6104ab858261042d565b865550610513565b601f1984166104c18661029d565b60005b828110156104e9578489015182556001820191506020850194506020810190506104c4565b868310156105065784890151610502601f89168261040f565b8355505b6001600288020188555050505b505050505050565b61052481610182565b82525050565b600082825260208201905092915050565b60005b8381101561055957808201518184015260208101905061053e565b60008484015250505050565b6000601f19601f8301169050919050565b600061058182610203565b61058b818561052a565b935061059b81856020860161053b565b6105a481610565565b840191505092915050565b600481106105c0576105bf6101d4565b5b50565b60008190506105d1826105af565b919050565b60006105e1826105c3565b9050919050565b6105f1816105d6565b82525050565b600060608201905061060c600083018661051b565b818103602083015261061e8185610576565b905061062d60408301846105e8565b949350505050565b610c4b806106446000396000f3fe608060405234801561001057600080fd5b506004361061007d5760003560e01c80638d9776721161005b5780638d977672146100d6578063b6cb58a514610108578063cf20311a14610126578063d353a1cb146101425761007d565b8063111002aa1461008257806340e58ee51461009e5780635c622a0e146100ba575b600080fd5b61009c6004803603810190610097919061068d565b61015e565b005b6100b860048036038101906100b3919061070c565b610253565b005b6100d460048036038101906100cf919061070c565b6102e5565b005b6100f060048036038101906100eb919061070c565b61034a565b6040516100ff9392919061083e565b60405180910390f35b610110610409565b60405161011d919061087c565b60405180910390f35b610140600480360381019061013b919061070c565b61040f565b005b61015c6004803603810190610157919061070c565b6104a1565b005b600080815480929190610170906108c6565b9190505550600060405180606001604052806000548152602001838152602001600060038111156101a4576101a36107c7565b5b81525090508060016000805481526020019081526020016000206000820151816000015560208201518160010190816101dd9190610b1a565b5060408201518160020160006101000a81548160ff02191690836003811115610209576102086107c7565b5b02179055509050507faaba9ffdeceb18cc0d591978961e2f699de6aa4f92d39d4d5556479b660753626000548360006040516102479392919061083e565b60405180910390a15050565b600060016000838152602001908152602001600020905060038160020160006101000a81548160ff02191690836003811115610292576102916107c7565b5b02179055507f8d4c1794d4d782a4c63862be4011d60d5aabfed1baefcb17c46d1daf85697970828260020160009054906101000a900460ff166040516102d9929190610bec565b60405180910390a15050565b60006001600083815260200190815260200160002090507f8d4c1794d4d782a4c63862be4011d60d5aabfed1baefcb17c46d1daf85697970828260020160009054906101000a900460ff1660405161033e929190610bec565b60405180910390a15050565b60016020528060005260406000206000915090508060000154908060010180546103739061093d565b80601f016020809104026020016040519081016040528092919081815260200182805461039f9061093d565b80156103ec5780601f106103c1576101008083540402835291602001916103ec565b820191906000526020600020905b8154815290600101906020018083116103cf57829003601f168201915b5050505050908060020160009054906101000a900460ff16905083565b60005481565b600060016000838152602001908152602001600020905060018160020160006101000a81548160ff0219169083600381111561044e5761044d6107c7565b5b02179055507f8d4c1794d4d782a4c63862be4011d60d5aabfed1baefcb17c46d1daf85697970828260020160009054906101000a900460ff16604051610495929190610bec565b60405180910390a15050565b600060016000838152602001908152602001600020905060028160020160006101000a81548160ff021916908360038111156104e0576104df6107c7565b5b02179055507f8d4c1794d4d782a4c63862be4011d60d5aabfed1baefcb17c46d1daf85697970828260020160009054906101000a900460ff16604051610527929190610bec565b60405180910390a15050565b6000604051905090565b600080fd5b600080fd5b600080fd5b600080fd5b6000601f19601f8301169050919050565b7f4e487b7100000000000000000000000000000000000000000000000000000000600052604160045260246000fd5b61059a82610551565b810181811067ffffffffffffffff821117156105b9576105b8610562565b5b80604052505050565b60006105cc610533565b90506105d88282610591565b919050565b600067ffffffffffffffff8211156105f8576105f7610562565b5b61060182610551565b9050602081019050919050565b82818337600083830152505050565b600061063061062b846105dd565b6105c2565b90508281526020810184848401111561064c5761064b61054c565b5b61065784828561060e565b509392505050565b600082601f83011261067457610673610547565b5b813561068484826020860161061d565b91505092915050565b6000602082840312156106a3576106a261053d565b5b600082013567ffffffffffffffff8111156106c1576106c0610542565b5b6106cd8482850161065f565b91505092915050565b6000819050919050565b6106e9816106d6565b81146106f457600080fd5b50565b600081359050610706816106e0565b92915050565b6000602082840312156107225761072161053d565b5b6000610730848285016106f7565b91505092915050565b610742816106d6565b82525050565b600081519050919050565b600082825260208201905092915050565b60005b83811015610782578082015181840152602081019050610767565b60008484015250505050565b600061079982610748565b6107a38185610753565b93506107b3818560208601610764565b6107bc81610551565b840191505092915050565b7f4e487b7100000000000000000000000000000000000000000000000000000000600052602160045260246000fd5b60048110610807576108066107c7565b5b50565b6000819050610818826107f6565b919050565b60006108288261080a565b9050919050565b6108388161081d565b82525050565b60006060820190506108536000830186610739565b8181036020830152610865818561078e565b9050610874604083018461082f565b949350505050565b60006020820190506108916000830184610739565b92915050565b7f4e487b7100000000000000000000000000000000000000000000000000000000600052601160045260246000fd5b60006108d1826106d6565b91507fffffffffffffffffffffffffffffffffffffffffffffffffffffffffffffffff820361090357610902610897565b5b600182019050919050565b7f4e487b7100000000000000000000000000000000000000000000000000000000600052602260045260246000fd5b6000600282049050600182168061095557607f821691505b6020821081036109685761096761090e565b5b50919050565b60008190508160005260206000209050919050565b60006020601f8301049050919050565b600082821b905092915050565b6000600883026109d07fffffffffffffffffffffffffffffffffffffffffffffffffffffffffffffffff82610993565b6109da8683610993565b95508019841693508086168417925050509392505050565b6000819050919050565b6000610a17610a12610a0d846106d6565b6109f2565b6106d6565b9050919050565b6000819050919050565b610a31836109fc565b610a45610a3d82610a1e565b8484546109a0565b825550505050565b600090565b610a5a610a4d565b610a65818484610a28565b505050565b5b81811015610a8957610a7e600082610a52565b600181019050610a6b565b5050565b601f821115610ace57610a9f8161096e565b610aa884610983565b81016020851015610ab7578190505b610acb610ac385610983565b830182610a6a565b50505b505050565b600082821c905092915050565b6000610af160001984600802610ad3565b1980831691505092915050565b6000610b0a8383610ae0565b9150826002028217905092915050565b610b2382610748565b67ffffffffffffffff811115610b3c57610b3b610562565b5b610b46825461093d565b610b51828285610a8d565b600060209050601f831160018114610b845760008415610b72578287015190505b610b7c8582610afe565b865550610be4565b601f198416610b928661096e565b60005b82811015610bba57848901518255600182019150602085019450602081019050610b95565b86831015610bd75784890151610bd3601f891682610ae0565b8355505b6001600288020188555050505b505050505050565b6000604082019050610c016000830185610739565b610c0e602083018461082f565b939250505056fea264697066735822122049b449bb4cb7e3a869f93f282c728d9dda20f0a9f6b851163dfcc687f7f9377064736f6c634300081c0033",
  "linkReferences": {},
  "deployedLinkReferences": {}
}