{
  "contracts/TodoList.sol": {
    "TodoList": {
      "abi": [
        {
          "inputs": [],
          "stateMutability": "nonpayable",
          "type": "constructor"
        },
        {
          "anonymous": false,
          "inputs": [
            {
              "indexed": false,
              "internalType": "uint256",
              "name": "id",
              "type": "uint256"
            },
            {
              "indexed": false,
              "internalType": "string",
              "name": "taskName",
              "type": "string"
            },
            {
              "indexed": false,
              "internalType": "enum TodoList.TaskStatusEnum",
              "name": "status",
              "type": "uint8"
            }
          ],
          "name": "TaskCreate",
          "type": "event"
        },
        {
          "anonymous": false,
          "inputs": [
            {
              "indexed": false,
              "internalType": "uint256",
              "name": "id",
              "type": "uint256"
            },
            {
              "indexed": false,
              "internalType": "enum TodoList.TaskStatusEnum",
              "name": "status",
              "type": "uint8"
            }
          ],
          "name": "TaskStatus",
          "type": "event"
        },
        {
          "inputs": [
            {
              "internalType": "uint256",
              "name": "_id",
              "type": "uint256"
            }
          ],
          "name": "cancel",
          "outputs": [],
          "stateMutability": "nonpayable",
          "type": "function"
        },
        {
          "inputs": [
            {
              "internalType": "string",
              "name": "_taskName",
              "type": "string"
            }
          ],
          "name": "createTask",
          "outputs": [],
          "stateMutability": "nonpayable",
          "type": "function"
        },
        {
          "inputs": [
            {
              "internalType": "uint256",
              "name": "_id",
              "type": "uint256"
            }
          ],
          "name": "finish",
          "outputs": [],
          "stateMutability": "nonpayable",
          "type": "function"
        },
        {
          "inputs": [
            {
              "internalType": "uint256",
              "name": "_id",
              "type": "uint256"
            }
          ],
          "name": "getStatus",
          "outputs": [],
          "stateMutability": "nonpayable",
          "type": "function"
        },
        {
          "inputs": [
            {
              "internalType": "uint256",
              "name": "_id",
              "type": "uint256"
            }
          ],
          "name": "handling",
          "outputs": [],
          "stateMutability": "nonpayable",
          "type": "function"
        },
        {
          "inputs": [],
          "name": "taskCount",
          "outputs": [
            {
              "internalType": "uint256",
              "name": "",
              "type": "uint256"
            }
          ],
          "stateMutability": "view",
          "type": "function"
        },
        {
          "inputs": [
            {
              "internalType": "uint256",
              "name": "",
              "type": "uint256"
            }
          ],
          "name": "tasks",
          "outputs": [
            {
              "internalType": "uint256",
              "name": "id",
              "type": "uint256"
            },
            {
              "internalType": "string",
              "name": "taskname",
              "type": "string"
            },
            {
              "internalType": "enum TodoList.TaskStatusEnum",
              "name": "status",
              "type": "uint8"
            }
          ],
          "stateMutability": "view",
          "type": "function"
        }
      ],
      "evm": {
        "bytecode": {
          "linkReferences": {},
          "object": "60806040526000805534801561001457600080fd5b506100596040518060400160405280601281526020017f546f646f204c697374205475746f7269616c000000000000000000000000000081525061005e60201b60201c565b610635565b6000808154809291906100709061018c565b9190505550600060405180606001604052806000548152602001838152602001600060038111156100a4576100a36101d4565b5b81525090508060016000805481526020019081526020016000206000820151816000015560208201518160010190816100dd9190610449565b5060408201518160020160006101000a81548160ff02191690836003811115610109576101086101d4565b5b02179055509050507faaba9ffdeceb18cc0d591978961e2f699de6aa4f92d39d4d5556479b66075362600054836000604051610147939291906105f7565b60405180910390a15050565b7f4e487b7100000000000000000000000000000000000000000000000000000000600052601160045260246000fd5b6000819050919050565b600061019782610182565b91507fffffffffffffffffffffffffffffffffffffffffffffffffffffffffffffffff82036101c9576101c8610153565b5b600182019050919050565b7f4e487b7100000000000000000000000000000000000000000000000000000000600052602160045260246000fd5b600081519050919050565b7f4e487b7100000000000000000000000000000000000000000000000000000000600052604160045260246000fd5b7f4e487b7100000000000000000000000000000000000000000000000000000000600052602260045260246000fd5b6000600282049050600182168061028457607f821691505b6020821081036102975761029661023d565b5b50919050565b60008190508160005260206000209050919050565b60006020601f8301049050919050565b600082821b905092915050565b6000600883026102ff7fffffffffffffffffffffffffffffffffffffffffffffffffffffffffffffffff826102c2565b61030986836102c2565b95508019841693508086168417925050509392505050565b6000819050919050565b600061034661034161033c84610182565b610321565b610182565b9050919050565b6000819050919050565b6103608361032b565b61037461036c8261034d565b8484546102cf565b825550505050565b600090565b61038961037c565b610394818484610357565b505050565b5b818110156103b8576103ad600082610381565b60018101905061039a565b5050565b601f8211156103fd576103ce8161029d565b6103d7846102b2565b810160208510156103e6578190505b6103fa6103f2856102b2565b830182610399565b50505b505050565b600082821c905092915050565b600061042060001984600802610402565b1980831691505092915050565b6000610439838361040f565b9150826002028217905092915050565b61045282610203565b67ffffffffffffffff81111561046b5761046a61020e565b5b610475825461026c565b6104808282856103bc565b600060209050601f8311600181146104b357600084156104a1578287015190505b6104ab858261042d565b865550610513565b601f1984166104c18661029d565b60005b828110156104e9578489015182556001820191506020850194506020810190506104c4565b868310156105065784890151610502601f89168261040f565b8355505b6001600288020188555050505b505050505050565b61052481610182565b82525050565b600082825260208201905092915050565b60005b8381101561055957808201518184015260208101905061053e565b60008484015250505050565b6000601f19601f8301169050919050565b600061058182610203565b61058b818561052a565b935061059b81856020860161053b565b6105a481610565565b840191505092915050565b600481106105c0576105bf6101d4565b5b50565b60008190506105d1826105af565b919050565b60006105e1826105c3565b9050919050565b6105f1816105d6565b82525050565b600060608201905061060c600083018661051b565b818103602083015261061e8185610576565b905061062d60408301846105e8565b949350505050565b610c4b806106446000396000f3fe608060405234801561001057600080fd5b506004361061007d5760003560e01c80638d9776721161005b5780638d977672146100d6578063b6cb58a514610108578063cf20311a14610126578063d353a1cb146101425761007d565b8063111002aa1461008257806340e58ee51461009e5780635c622a0e146100ba575b600080fd5b61009c6004803603810190610097919061068d565b61015e565b005b6100b860048036038101906100b3919061070c565b610253565b005b6100d460048036038101906100cf919061070c565b6102e5565b005b6100f060048036038101906100eb919061070c565b61034a565b6040516100ff9392919061083e565b60405180910390f35b610110610409565b60405161011d919061087c565b60405180910390f35b610140600480360381019061013b919061070c565b61040f565b005b61015c6004803603810190610157919061070c565b6104a1565b005b600080815480929190610170906108c6565b9190505550600060405180606001604052806000548152602001838152602001600060038111156101a4576101a36107c7565b5b81525090508060016000805481526020019081526020016000206000820151816000015560208201518160010190816101dd9190610b1a565b5060408201518160020160006101000a81548160ff02191690836003811115610209576102086107c7565b5b02179055509050507faaba9ffdeceb18cc0d591978961e2f699de6aa4f92d39d4d5556479b660753626000548360006040516102479392919061083e565b60405180910390a15050565b600060016000838152602001908152602001600020905060038160020160006101000a81548160ff02191690836003811115610292576102916107c7565b5b02179055507f8d4c1794d4d782a4c63862be4011d60d5aabfed1baefcb17c46d1daf85697970828260020160009054906101000a900460ff166040516102d9929190610bec565b60405180910390a15050565b60006001600083815260200190815260200160002090507f8d4c1794d4d782a4c63862be4011d60d5aabfed1baefcb17c46d1daf85697970828260020160009054906101000a900460ff1660405161033e929190610bec565b60405180910390a15050565b60016020528060005260406000206000915090508060000154908060010180546103739061093d565b80601f016020809104026020016040519081016040528092919081815260200182805461039f9061093d565b80156103ec5780601f106103c1576101008083540402835291602001916103ec565b820191906000526020600020905b8154815290600101906020018083116103cf57829003601f168201915b5050505050908060020160009054906101000a900460ff16905083565b60005481565b600060016000838152602001908152602001600020905060018160020160006101000a81548160ff0219169083600381111561044e5761044d6107c7565b5b02179055507f8d4c1794d4d782a4c63862be4011d60d5aabfed1baefcb17c46d1daf85697970828260020160009054906101000a900460ff16604051610495929190610bec565b60405180910390a15050565b600060016000838152602001908152602001600020905060028160020160006101000a81548160ff021916908360038111156104e0576104df6107c7565b5b02179055507f8d4c1794d4d782a4c63862be4011d60d5aabfed1baefcb17c46d1daf85697970828260020160009054906101000a900460ff16604051610527929190610bec565b60405180910390a15050565b6000604051905090565b600080fd5b600080fd5b600080fd5b600080fd5b6000601f19601f8301169050919050565b7f4e487b7100000000000000000000000000000000000000000000000000000000600052604160045260246000fd5b61059a82610551565b810181811067ffffffffffffffff821117156105b9576105b8610562565b5b80604052505050565b60006105cc610533565b90506105d88282610591565b919050565b600067ffffffffffffffff8211156105f8576105f7610562565b5b61060182610551565b9050602081019050919050565b82818337600083830152505050565b600061063061062b846105dd565b6105c2565b90508281526020810184848401111561064c5761064b61054c565b5b61065784828561060e565b509392505050565b600082601f83011261067457610673610547565b5b813561068484826020860161061d565b91505092915050565b6000602082840312156106a3576106a261053d565b5b600082013567ffffffffffffffff8111156106c1576106c0610542565b5b6106cd8482850161065f565b91505092915050565b6000819050919050565b6106e9816106d6565b81146106f457600080fd5b50565b600081359050610706816106e0565b92915050565b6000602082840312156107225761072161053d565b5b6000610730848285016106f7565b91505092915050565b610742816106d6565b82525050565b600081519050919050565b600082825260208201905092915050565b60005b83811015610782578082015181840152602081019050610767565b60008484015250505050565b600061079982610748565b6107a38185610753565b93506107b3818560208601610764565b6107bc81610551565b840191505092915050565b7f4e487b7100000000000000000000000000000000000000000000000000000000600052602160045260246000fd5b60048110610807576108066107c7565b5b50565b6000819050610818826107f6565b919050565b60006108288261080a565b9050919050565b6108388161081d565b82525050565b60006060820190506108536000830186610739565b8181036020830152610865818561078e565b9050610874604083018461082f565b949350505050565b60006020820190506108916000830184610739565b92915050565b7f4e487b7100000000000000000000000000000000000000000000000000000000600052601160045260246000fd5b60006108d1826106d6565b91507fffffffffffffffffffffffffffffffffffffffffffffffffffffffffffffffff820361090357610902610897565b5b600182019050919050565b7f4e487b7100000000000000000000000000000000000000000000000000000000600052602260045260246000fd5b6000600282049050600182168061095557607f821691505b6020821081036109685761096761090e565b5b50919050565b60008190508160005260206000209050919050565b60006020601f8301049050919050565b600082821b905092915050565b6000600883026109d07fffffffffffffffffffffffffffffffffffffffffffffffffffffffffffffffff82610993565b6109da8683610993565b95508019841693508086168417925050509392505050565b6000819050919050565b6000610a17610a12610a0d846106d6565b6109f2565b6106d6565b9050919050565b6000819050919050565b610a31836109fc565b610a45610a3d82610a1e565b8484546109a0565b825550505050565b600090565b610a5a610a4d565b610a65818484610a28565b505050565b5b81811015610a8957610a7e600082610a52565b600181019050610a6b565b5050565b601f821115610ace57610a9f8161096e565b610aa884610983565b81016020851015610ab7578190505b610acb610ac385610983565b830182610a6a565b50505b505050565b600082821c905092915050565b6000610af160001984600802610ad3565b1980831691505092915050565b6000610b0a8383610ae0565b9150826002028217905092915050565b610b2382610748565b67ffffffffffffffff811115610b3c57610b3b610562565b5b610b46825461093d565b610b51828285610a8d565b600060209050601f831160018114610b845760008415610b72578287015190505b610b7c8582610afe565b865550610be4565b601f198416610b928661096e565b60005b82811015610bba57848901518255600182019150602085019450602081019050610b95565b86831015610bd75784890151610bd3601f891682610ae0565b8355505b6001600288020188555050505b505050505050565b6000604082019050610c016000830185610739565b610c0e602083018461082f565b939250505056fea264697066735822122049b449bb4cb7e3a869f93f282c728d9dda20f0a9f6b851163dfcc687f7f9377064736f6c634300081c0033",
          "opcodes": "PUSH1 0x80 PUSH1 0x40 MSTORE PUSH1 0x0 DUP1 SSTORE CALLVALUE DUP1 ISZERO PUSH2 0x14 JUMPI PUSH1 0x0 DUP1 REVERT JUMPDEST POP PUSH2 0x59 PUSH1 0x40 MLOAD DUP1 PUSH1 0x40 ADD PUSH1 0x40 MSTORE DUP1 PUSH1 0x12 DUP2 MSTORE PUSH1 0x20 ADD PUSH32 0x546F646F204C697374205475746F7269616C0000000000000000000000000000 DUP2 MSTORE POP PUSH2 0x5E PUSH1 0x20 SHL PUSH1 0x20 SHR JUMP JUMPDEST PUSH2 0x635 JUMP JUMPDEST PUSH1 0x0 DUP1 DUP2 SLOAD DUP1 SWAP3 SWAP2 SWAP1 PUSH2 0x70 SWAP1 PUSH2 0x18C JUMP JUMPDEST SWAP2 SWAP1 POP SSTORE POP PUSH1 0x0 PUSH1 0x40 MLOAD DUP1 PUSH1 0x60 ADD PUSH1 0x40 MSTORE DUP1 PUSH1 0x0 SLOAD DUP2 MSTORE PUSH1 0x20 ADD DUP4 DUP2 MSTORE PUSH1 0x20 ADD PUSH1 0x0 PUSH1 0x3 DUP2 GT ISZERO PUSH2 0xA4 JUMPI PUSH2 0xA3 PUSH2 0x1D4 JUMP JUMPDEST JUMPDEST DUP2 MSTORE POP SWAP1 POP DUP1 PUSH1 0x1 PUSH1 0x0 DUP1 SLOAD DUP2 MSTORE PUSH1 0x20 ADD SWAP1 DUP2 MSTORE PUSH1 0x20 ADD PUSH1 0x0 KECCAK256 PUSH1 0x0 DUP3 ADD MLOAD DUP2 PUSH1 0x0 ADD SSTORE PUSH1 0x20 DUP3 ADD MLOAD DUP2 PUSH1 0x1 ADD SWAP1 DUP2 PUSH2 0xDD SWAP2 SWAP1 PUSH2 0x449 JUMP JUMPDEST POP PUSH1 0x40 DUP3 ADD MLOAD DUP2 PUSH1 0x2 ADD PUSH1 0x0 PUSH2 0x100 EXP DUP2 SLOAD DUP2 PUSH1 0xFF MUL NOT AND SWAP1 DUP4 PUSH1 0x3 DUP2 GT ISZERO PUSH2 0x109 JUMPI PUSH2 0x108 PUSH2 0x1D4 JUMP JUMPDEST JUMPDEST MUL OR SWAP1 SSTORE POP SWAP1 POP POP PUSH32 0xAABA9FFDECEB18CC0D591978961E2F699DE6AA4F92D39D4D5556479B66075362 PUSH1 0x0 SLOAD DUP4 PUSH1 0x0 PUSH1 0x40 MLOAD PUSH2 0x147 SWAP4 SWAP3 SWAP2 SWAP1 PUSH2 0x5F7 JUMP JUMPDEST PUSH1 0x40 MLOAD DUP1 SWAP2 SUB SWAP1 LOG1 POP POP JUMP JUMPDEST PUSH32 0x4E487B7100000000000000000000000000000000000000000000000000000000 PUSH1 0x0 MSTORE PUSH1 0x11 PUSH1 0x4 MSTORE PUSH1 0x24 PUSH1 0x0 REVERT JUMPDEST PUSH1 0x0 DUP2 SWAP1 POP SWAP2 SWAP1 POP JUMP JUMPDEST PUSH1 0x0 PUSH2 0x197 DUP3 PUSH2 0x182 JUMP JUMPDEST SWAP2 POP PUSH32 0xFFFFFFFFFFFFFFFFFFFFFFFFFFFFFFFFFFFFFFFFFFFFFFFFFFFFFFFFFFFFFFFF DUP3 SUB PUSH2 0x1C9 JUMPI PUSH2 0x1C8 PUSH2 0x153 JUMP JUMPDEST JUMPDEST PUSH1 0x1 DUP3 ADD SWAP1 POP SWAP2 SWAP1 POP JUMP JUMPDEST PUSH32 0x4E487B7100000000000000000000000000000000000000000000000000000000 PUSH1 0x0 MSTORE PUSH1 0x21 PUSH1 0x4 MSTORE PUSH1 0x24 PUSH1 0x0 REVERT JUMPDEST PUSH1 0x0 DUP2 MLOAD SWAP1 POP SWAP2 SWAP1 POP JUMP JUMPDEST PUSH32 0x4E487B7100000000000000000000000000000000000000000000000000000000 PUSH1 0x0 MSTORE PUSH1 0x41 PUSH1 0x4 MSTORE PUSH1 0x24 PUSH1 0x0 REVERT JUMPDEST PUSH32 0x4E487B7100000000000000000000000000000000000000000000000000000000 PUSH1 0x0 MSTORE PUSH1 0x22 PUSH1 0x4 MSTORE PUSH1 0x24 PUSH1 0x0 REVERT JUMPDEST PUSH1 0x0 PUSH1 0x2 DUP3 DIV SWAP1 POP PUSH1 0x1 DUP3 AND DUP1 PUSH2 0x284 JUMPI PUSH1 0x7F DUP3 AND SWAP2 POP JUMPDEST PUSH1 0x20 DUP3 LT DUP2 SUB PUSH2 0x297 JUMPI PUSH2 0x296 PUSH2 0x23D JUMP JUMPDEST JUMPDEST POP SWAP2 SWAP1 POP JUMP JUMPDEST PUSH1 0x0 DUP2 SWAP1 POP DUP2 PUSH1 0x0 MSTORE PUSH1 0x20 PUSH1 0x0 KECCAK256 SWAP1 POP SWAP2 SWAP1 POP JUMP JUMPDEST PUSH1 0x0 PUSH1 0x20 PUSH1 0x1F DUP4 ADD DIV SWAP1 POP SWAP2 SWAP1 POP JUMP JUMPDEST PUSH1 0x0 DUP3 DUP3 SHL SWAP1 POP SWAP3 SWAP2 POP POP JUMP JUMPDEST PUSH1 0x0 PUSH1 0x8 DUP4 MUL PUSH2 0x2FF PUSH32 0xFFFFFFFFFFFFFFFFFFFFFFFFFFFFFFFFFFFFFFFFFFFFFFFFFFFFFFFFFFFFFFFF DUP3 PUSH2 0x2C2 JUMP JUMPDEST PUSH2 0x309 DUP7 DUP4 PUSH2 0x2C2 JUMP JUMPDEST SWAP6 POP DUP1 NOT DUP5 AND SWAP4 POP DUP1 DUP7 AND DUP5 OR SWAP3 POP POP POP SWAP4 SWAP3 POP POP POP JUMP JUMPDEST PUSH1 0x0 DUP2 SWAP1 POP SWAP2 SWAP1 POP JUMP JUMPDEST PUSH1 0x0 PUSH2 0x346 PUSH2 0x341 PUSH2 0x33C DUP5 PUSH2 0x182 JUMP JUMPDEST PUSH2 0x321 JUMP JUMPDEST PUSH2 0x182 JUMP JUMPDEST SWAP1 POP SWAP2 SWAP1 POP JUMP JUMPDEST PUSH1 0x0 DUP2 SWAP1 POP SWAP2 SWAP1 POP JUMP JUMPDEST PUSH2 0x360 DUP4 PUSH2 0x32B JUMP JUMPDEST PUSH2 0x374 PUSH2 0x36C DUP3 PUSH2 0x34D JUMP JUMPDEST DUP5 DUP5 SLOAD PUSH2 0x2CF JUMP JUMPDEST DUP3 SSTORE POP POP POP POP JUMP JUMPDEST PUSH1 0x0 SWAP1 JUMP JUMPDEST PUSH2 0x389 PUSH2 0x37C JUMP JUMPDEST PUSH2 0x394 DUP2 DUP5 DUP5 PUSH2 0x357 JUMP JUMPDEST POP POP POP JUMP JUMPDEST JUMPDEST DUP2 DUP2 LT ISZERO PUSH2 0x3B8 JUMPI PUSH2 0x3AD PUSH1 0x0 DUP3 PUSH2 0x381 JUMP JUMPDEST PUSH1 0x1 DUP2 ADD SWAP1 POP PUSH2 0x39A JUMP JUMPDEST POP POP JUMP JUMPDEST PUSH1 0x1F DUP3 GT ISZERO PUSH2 0x3FD JUMPI PUSH2 0x3CE DUP2 PUSH2 0x29D JUMP JUMPDEST PUSH2 0x3D7 DUP5 PUSH2 0x2B2 JUMP JUMPDEST DUP2 ADD PUSH1 0x20 DUP6 LT ISZERO PUSH2 0x3E6 JUMPI DUP2 SWAP1 POP JUMPDEST PUSH2 0x3FA PUSH2 0x3F2 DUP6 PUSH2 0x2B2 JUMP JUMPDEST DUP4 ADD DUP3 PUSH2 0x399 JUMP JUMPDEST POP POP JUMPDEST POP POP POP JUMP JUMPDEST PUSH1 0x0 DUP3 DUP3 SHR SWAP1 POP SWAP3 SWAP2 POP POP JUMP JUMPDEST PUSH1 0x0 PUSH2 0x420 PUSH1 0x0 NOT DUP5 PUSH1 0x8 MUL PUSH2 0x402 JUMP JUMPDEST NOT DUP1 DUP4 AND SWAP2 POP POP SWAP3 SWAP2 POP POP JUMP JUMPDEST PUSH1 0x0 PUSH2 0x439 DUP4 DUP4 PUSH2 0x40F JUMP JUMPDEST SWAP2 POP DUP3 PUSH1 0x2 MUL DUP3 OR SWAP1 POP SWAP3 SWAP2 POP POP JUMP JUMPDEST PUSH2 0x452 DUP3 PUSH2 0x203 JUMP JUMPDEST PUSH8 0xFFFFFFFFFFFFFFFF DUP2 GT ISZERO PUSH2 0x46B JUMPI PUSH2 0x46A PUSH2 0x20E JUMP JUMPDEST JUMPDEST PUSH2 0x475 DUP3 SLOAD PUSH2 0x26C JUMP JUMPDEST PUSH2 0x480 DUP3 DUP3 DUP6 PUSH2 0x3BC JUMP JUMPDEST PUSH1 0x0 PUSH1 0x20 SWAP1 POP PUSH1 0x1F DUP4 GT PUSH1 0x1 DUP2 EQ PUSH2 0x4B3 JUMPI PUSH1 0x0 DUP5 ISZERO PUSH2 0x4A1 JUMPI DUP3 DUP8 ADD MLOAD SWAP1 POP JUMPDEST PUSH2 0x4AB DUP6 DUP3 PUSH2 0x42D JUMP JUMPDEST DUP7 SSTORE POP PUSH2 0x513 JUMP JUMPDEST PUSH1 0x1F NOT DUP5 AND PUSH2 0x4C1 DUP7 PUSH2 0x29D JUMP JUMPDEST PUSH1 0x0 JUMPDEST DUP3 DUP2 LT ISZERO PUSH2 0x4E9 JUMPI DUP5 DUP10 ADD MLOAD DUP3 SSTORE PUSH1 0x1 DUP3 ADD SWAP2 POP PUSH1 0x20 DUP6 ADD SWAP5 POP PUSH1 0x20 DUP2 ADD SWAP1 POP PUSH2 0x4C4 JUMP JUMPDEST DUP7 DUP4 LT ISZERO PUSH2 0x506 JUMPI DUP5 DUP10 ADD MLOAD PUSH2 0x502 PUSH1 0x1F DUP10 AND DUP3 PUSH2 0x40F JUMP JUMPDEST DUP4 SSTORE POP JUMPDEST PUSH1 0x1 PUSH1 0x2 DUP9 MUL ADD DUP9 SSTORE POP POP POP JUMPDEST POP POP POP POP POP POP JUMP JUMPDEST PUSH2 0x524 DUP2 PUSH2 0x182 JUMP JUMPDEST DUP3 MSTORE POP POP JUMP JUMPDEST PUSH1 0x0 DUP3 DUP3 MSTORE PUSH1 0x20 DUP3 ADD SWAP1 POP SWAP3 SWAP2 POP POP JUMP JUMPDEST PUSH1 0x0 JUMPDEST DUP4 DUP2 LT ISZERO PUSH2 0x559 JUMPI DUP1 DUP3 ADD MLOAD DUP2 DUP5 ADD MSTORE PUSH1 0x20 DUP2 ADD SWAP1 POP PUSH2 0x53E JUMP JUMPDEST PUSH1 0x0 DUP5 DUP5 ADD MSTORE POP POP POP POP JUMP JUMPDEST PUSH1 0x0 PUSH1 0x1F NOT PUSH1 0x1F DUP4 ADD AND SWAP1 POP SWAP2 SWAP1 POP JUMP JUMPDEST PUSH1 0x0 PUSH2 0x581 DUP3 PUSH2 0x203 JUMP JUMPDEST PUSH2 0x58B DUP2 DUP6 PUSH2 0x52A JUMP JUMPDEST SWAP4 POP PUSH2 0x59B DUP2 DUP6 PUSH1 0x20 DUP7 ADD PUSH2 0x53B JUMP JUMPDEST PUSH2 0x5A4 DUP2 PUSH2 0x565 JUMP JUMPDEST DUP5 ADD SWAP2 POP POP SWAP3 SWAP2 POP POP JUMP JUMPDEST PUSH1 0x4 DUP2 LT PUSH2 0x5C0 JUMPI PUSH2 0x5BF PUSH2 0x1D4 JUMP JUMPDEST JUMPDEST POP JUMP JUMPDEST PUSH1 0x0 DUP2 SWAP1 POP PUSH2 0x5D1 DUP3 PUSH2 0x5AF JUMP JUMPDEST SWAP2 SWAP1 POP JUMP JUMPDEST PUSH1 0x0 PUSH2 0x5E1 DUP3 PUSH2 0x5C3 JUMP JUMPDEST SWAP1 POP SWAP2 SWAP1 POP JUMP JUMPDEST PUSH2 0x5F1 DUP2 PUSH2 0x5D6 JUMP JUMPDEST DUP3 MSTORE POP POP JUMP JUMPDEST PUSH1 0x0 PUSH1 0x60 DUP3 ADD SWAP1 POP PUSH2 0x60C PUSH1 0x0 DUP4 ADD DUP7 PUSH2 0x51B JUMP JUMPDEST DUP2 DUP2 SUB PUSH1 0x20 DUP4 ADD MSTORE PUSH2 0x61E DUP2 DUP6 PUSH2 0x576 JUMP JUMPDEST SWAP1 POP PUSH2 0x62D PUSH1 0x40 DUP4 ADD DUP5 PUSH2 0x5E8 JUMP JUMPDEST SWAP5 SWAP4 POP POP POP POP JUMP JUMPDEST PUSH2 0xC4B DUP1 PUSH2 0x644 PUSH1 0x0 CODECOPY PUSH1 0x0 RETURN INVALID PUSH1 0x80 PUSH1 0x40 MSTORE CALLVALUE DUP1 ISZERO PUSH2 0x10 JUMPI PUSH1 0x0 DUP1 REVERT JUMPDEST POP PUSH1 0x4 CALLDATASIZE LT PUSH2 0x7D JUMPI PUSH1 0x0 CALLDATALOAD PUSH1 0xE0 SHR DUP1 PUSH4 0x8D977672 GT PUSH2 0x5B JUMPI DUP1 PUSH4 0x8D977672 EQ PUSH2 0xD6 JUMPI DUP1 PUSH4 0xB6CB58A5 EQ PUSH2 0x108 JUMPI DUP1 PUSH4 0xCF20311A EQ PUSH2 0x126 JUMPI DUP1 PUSH4 0xD353A1CB EQ PUSH2 0x142 JUMPI PUSH2 0x7D JUMP JUMPDEST DUP1 PUSH4 0x111002AA EQ PUSH2 0x82 JUMPI DUP1 PUSH4 0x40E58EE5 EQ PUSH2 0x9E JUMPI DUP1 PUSH4 0x5C622A0E EQ PUSH2 0xBA JUMPI JUMPDEST PUSH1 0x0 DUP1 REVERT JUMPDEST PUSH2 0x9C PUSH1 0x4 DUP1 CALLDATASIZE SUB DUP2 ADD SWAP1 PUSH2 0x97 SWAP2 SWAP1 PUSH2 0x68D JUMP JUMPDEST PUSH2 0x15E JUMP JUMPDEST STOP JUMPDEST PUSH2 0xB8 PUSH1 0x4 DUP1 CALLDATASIZE SUB DUP2 ADD SWAP1 PUSH2 0xB3 SWAP2 SWAP1 PUSH2 0x70C JUMP JUMPDEST PUSH2 0x253 JUMP JUMPDEST STOP JUMPDEST PUSH2 0xD4 PUSH1 0x4 DUP1 CALLDATASIZE SUB DUP2 ADD SWAP1 PUSH2 0xCF SWAP2 SWAP1 PUSH2 0x70C JUMP JUMPDEST PUSH2 0x2E5 JUMP JUMPDEST STOP JUMPDEST PUSH2 0xF0 PUSH1 0x4 DUP1 CALLDATASIZE SUB DUP2 ADD SWAP1 PUSH2 0xEB SWAP2 SWAP1 PUSH2 0x70C JUMP JUMPDEST PUSH2 0x34A JUMP JUMPDEST PUSH1 0x40 MLOAD PUSH2 0xFF SWAP4 SWAP3 SWAP2 SWAP1 PUSH2 0x83E JUMP JUMPDEST PUSH1 0x40 MLOAD DUP1 SWAP2 SUB SWAP1 RETURN JUMPDEST PUSH2 0x110 PUSH2 0x409 JUMP JUMPDEST PUSH1 0x40 MLOAD PUSH2 0x11D SWAP2 SWAP1 PUSH2 0x87C JUMP JUMPDEST PUSH1 0x40 MLOAD DUP1 SWAP2 SUB SWAP1 RETURN JUMPDEST PUSH2 0x140 PUSH1 0x4 DUP1 CALLDATASIZE SUB DUP2 ADD SWAP1 PUSH2 0x13B SWAP2 SWAP1 PUSH2 0x70C JUMP JUMPDEST PUSH2 0x40F JUMP JUMPDEST STOP JUMPDEST PUSH2 0x15C PUSH1 0x4 DUP1 CALLDATASIZE SUB DUP2 ADD SWAP1 PUSH2 0x157 SWAP2 SWAP1 PUSH2 0x70C JUMP JUMPDEST PUSH2 0x4A1 JUMP JUMPDEST STOP JUMPDEST PUSH1 0x0 DUP1 DUP2 SLOAD DUP1 SWAP3 SWAP2 SWAP1 PUSH2 0x170 SWAP1 PUSH2 0x8C6 JUMP JUMPDEST SWAP2 SWAP1 POP SSTORE POP PUSH1 0x0 PUSH1 0x40 MLOAD DUP1 PUSH1 0x60 ADD PUSH1 0x40 MSTORE DUP1 PUSH1 0x0 SLOAD DUP2 MSTORE PUSH1 0x20 ADD DUP4 DUP2 MSTORE PUSH1 0x20 ADD PUSH1 0x0 PUSH1 0x3 DUP2 GT ISZERO PUSH2 0x1A4 JUMPI PUSH2 0x1A3 PUSH2 0x7C7 JUMP JUMPDEST JUMPDEST DUP2 MSTORE POP SWAP1 POP DUP1 PUSH1 0x1 PUSH1 0x0 DUP1 SLOAD DUP2 MSTORE PUSH1 0x20 ADD SWAP1 DUP2 MSTORE PUSH1 0x20 ADD PUSH1 0x0 KECCAK256 PUSH1 0x0 DUP3 ADD MLOAD DUP2 PUSH1 0x0 ADD SSTORE PUSH1 0x20 DUP3 ADD MLOAD DUP2 PUSH1 0x1 ADD SWAP1 DUP2 PUSH2 0x1DD SWAP2 SWAP1 PUSH2 0xB1A JUMP JUMPDEST POP PUSH1 0x40 DUP3 ADD MLOAD DUP2 PUSH1 0x2 ADD PUSH1 0x0 PUSH2 0x100 EXP DUP2 SLOAD DUP2 PUSH1 0xFF MUL NOT AND SWAP1 DUP4 PUSH1 0x3 DUP2 GT ISZERO PUSH2 0x209 JUMPI PUSH2 0x208 PUSH2 0x7C7 JUMP JUMPDEST JUMPDEST MUL OR SWAP1 SSTORE POP SWAP1 POP POP PUSH32 0xAABA9FFDECEB18CC0D591978961E2F699DE6AA4F92D39D4D5556479B66075362 PUSH1 0x0 SLOAD DUP4 PUSH1 0x0 PUSH1 0x40 MLOAD PUSH2 0x247 SWAP4 SWAP3 SWAP2 SWAP1 PUSH2 0x83E JUMP JUMPDEST PUSH1 0x40 MLOAD DUP1 SWAP2 SUB SWAP1 LOG1 POP POP JUMP JUMPDEST PUSH1 0x0 PUSH1 0x1 PUSH1 0x0 DUP4 DUP2 MSTORE PUSH1 0x20 ADD SWAP1 DUP2 MSTORE PUSH1 0x20 ADD PUSH1 0x0 KECCAK256 SWAP1 POP PUSH1 0x3 DUP2 PUSH1 0x2 ADD PUSH1 0x0 PUSH2 0x100 EXP DUP2 SLOAD DUP2 PUSH1 0xFF MUL NOT AND SWAP1 DUP4 PUSH1 0x3 DUP2 GT ISZERO PUSH2 0x292 JUMPI PUSH2 0x291 PUSH2 0x7C7 JUMP JUMPDEST JUMPDEST MUL OR SWAP1 SSTORE POP PUSH32 0x8D4C1794D4D782A4C63862BE4011D60D5AABFED1BAEFCB17C46D1DAF85697970 DUP3 DUP3 PUSH1 0x2 ADD PUSH1 0x0 SWAP1 SLOAD SWAP1 PUSH2 0x100 EXP SWAP1 DIV PUSH1 0xFF AND PUSH1 0x40 MLOAD PUSH2 0x2D9 SWAP3 SWAP2 SWAP1 PUSH2 0xBEC JUMP JUMPDEST PUSH1 0x40 MLOAD DUP1 SWAP2 SUB SWAP1 LOG1 POP POP JUMP JUMPDEST PUSH1 0x0 PUSH1 0x1 PUSH1 0x0 DUP4 DUP2 MSTORE PUSH1 0x20 ADD SWAP1 DUP2 MSTORE PUSH1 0x20 ADD PUSH1 0x0 KECCAK256 SWAP1 POP PUSH32 0x8D4C1794D4D782A4C63862BE4011D60D5AABFED1BAEFCB17C46D1DAF85697970 DUP3 DUP3 PUSH1 0x2 ADD PUSH1 0x0 SWAP1 SLOAD SWAP1 PUSH2 0x100 EXP SWAP1 DIV PUSH1 0xFF AND PUSH1 0x40 MLOAD PUSH2 0x33E SWAP3 SWAP2 SWAP1 PUSH2 0xBEC JUMP JUMPDEST PUSH1 0x40 MLOAD DUP1 SWAP2 SUB SWAP1 LOG1 POP POP JUMP JUMPDEST PUSH1 0x1 PUSH1 0x20 MSTORE DUP1 PUSH1 0x0 MSTORE PUSH1 0x40 PUSH1 0x0 KECCAK256 PUSH1 0x0 SWAP2 POP SWAP1 POP DUP1 PUSH1 0x0 ADD SLOAD SWAP1 DUP1 PUSH1 0x1 ADD DUP1 SLOAD PUSH2 0x373 SWAP1 PUSH2 0x93D JUMP JUMPDEST DUP1 PUSH1 0x1F ADD PUSH1 0x20 DUP1 SWAP2 DIV MUL PUSH1 0x20 ADD PUSH1 0x40 MLOAD SWAP1 DUP2 ADD PUSH1 0x40 MSTORE DUP1 SWAP3 SWAP2 SWAP1 DUP2 DUP2 MSTORE PUSH1 0x20 ADD DUP3 DUP1 SLOAD PUSH2 0x39F SWAP1 PUSH2 0x93D JUMP JUMPDEST DUP1 ISZERO PUSH2 0x3EC JUMPI DUP1 PUSH1 0x1F LT PUSH2 0x3C1 JUMPI PUSH2 0x100 DUP1 DUP4 SLOAD DIV MUL DUP4 MSTORE SWAP2 PUSH1 0x20 ADD SWAP2 PUSH2 0x3EC JUMP JUMPDEST DUP3 ADD SWAP2 SWAP1 PUSH1 0x0 MSTORE PUSH1 0x20 PUSH1 0x0 KECCAK256 SWAP1 JUMPDEST DUP2 SLOAD DUP2 MSTORE SWAP1 PUSH1 0x1 ADD SWAP1 PUSH1 0x20 ADD DUP1 DUP4 GT PUSH2 0x3CF JUMPI DUP3 SWAP1 SUB PUSH1 0x1F AND DUP3 ADD SWAP2 JUMPDEST POP POP POP POP POP SWAP1 DUP1 PUSH1 0x2 ADD PUSH1 0x0 SWAP1 SLOAD SWAP1 PUSH2 0x100 EXP SWAP1 DIV PUSH1 0xFF AND SWAP1 POP DUP4 JUMP JUMPDEST PUSH1 0x0 SLOAD DUP2 JUMP JUMPDEST PUSH1 0x0 PUSH1 0x1 PUSH1 0x0 DUP4 DUP2 MSTORE PUSH1 0x20 ADD SWAP1 DUP2 MSTORE PUSH1 0x20 ADD PUSH1 0x0 KECCAK256 SWAP1 POP PUSH1 0x1 DUP2 PUSH1 0x2 ADD PUSH1 0x0 PUSH2 0x100 EXP DUP2 SLOAD DUP2 PUSH1 0xFF MUL NOT AND SWAP1 DUP4 PUSH1 0x3 DUP2 GT ISZERO PUSH2 0x44E JUMPI PUSH2 0x44D PUSH2 0x7C7 JUMP JUMPDEST JUMPDEST MUL OR SWAP1 SSTORE POP PUSH32 0x8D4C1794D4D782A4C63862BE4011D60D5AABFED1BAEFCB17C46D1DAF85697970 DUP3 DUP3 PUSH1 0x2 ADD PUSH1 0x0 SWAP1 SLOAD SWAP1 PUSH2 0x100 EXP SWAP1 DIV PUSH1 0xFF AND PUSH1 0x40 MLOAD PUSH2 0x495 SWAP3 SWAP2 SWAP1 PUSH2 0xBEC JUMP JUMPDEST PUSH1 0x40 MLOAD DUP1 SWAP2 SUB SWAP1 LOG1 POP POP JUMP JUMPDEST PUSH1 0x0 PUSH1 0x1 PUSH1 0x0 DUP4 DUP2 MSTORE PUSH1 0x20 ADD SWAP1 DUP2 MSTORE PUSH1 0x20 ADD PUSH1 0x0 KECCAK256 SWAP1 POP PUSH1 0x2 DUP2 PUSH1 0x2 ADD PUSH1 0x0 PUSH2 0x100 EXP DUP2 SLOAD DUP2 PUSH1 0xFF MUL NOT AND SWAP1 DUP4 PUSH1 0x3 DUP2 GT ISZERO PUSH2 0x4E0 JUMPI PUSH2 0x4DF PUSH2 0x7C7 JUMP JUMPDEST JUMPDEST MUL OR SWAP1 SSTORE POP PUSH32 0x8D4C1794D4D782A4C63862BE4011D60D5AABFED1BAEFCB17C46D1DAF85697970 DUP3 DUP3 PUSH1 0x2 ADD PUSH1 0x0 SWAP1 SLOAD SWAP1 PUSH2 0x100 EXP SWAP1 DIV PUSH1 0xFF AND PUSH1 0x40 MLOAD PUSH2 0x527 SWAP3 SWAP2 SWAP1 PUSH2 0xBEC JUMP JUMPDEST PUSH1 0x40 MLOAD DUP1 SWAP2 SUB SWAP1 LOG1 POP POP JUMP JUMPDEST PUSH1 0x0 PUSH1 0x40 MLOAD SWAP1 POP SWAP1 JUMP JUMPDEST PUSH1 0x0 DUP1 REVERT JUMPDEST PUSH1 0x0 DUP1 REVERT JUMPDEST PUSH1 0x0 DUP1 REVERT JUMPDEST PUSH1 0x0 DUP1 REVERT JUMPDEST PUSH1 0x0 PUSH1 0x1F NOT PUSH1 0x1F DUP4 ADD AND SWAP1 POP SWAP2 SWAP1 POP JUMP JUMPDEST PUSH32 0x4E487B7100000000000000000000000000000000000000000000000000000000 PUSH1 0x0 MSTORE PUSH1 0x41 PUSH1 0x4 MSTORE PUSH1 0x24 PUSH1 0x0 REVERT JUMPDEST PUSH2 0x59A DUP3 PUSH2 0x551 JUMP JUMPDEST DUP2 ADD DUP2 DUP2 LT PUSH8 0xFFFFFFFFFFFFFFFF DUP3 GT OR ISZERO PUSH2 0x5B9 JUMPI PUSH2 0x5B8 PUSH2 0x562 JUMP JUMPDEST JUMPDEST DUP1 PUSH1 0x40 MSTORE POP POP POP JUMP JUMPDEST PUSH1 0x0 PUSH2 0x5CC PUSH2 0x533 JUMP JUMPDEST SWAP1 POP PUSH2 0x5D8 DUP3 DUP3 PUSH2 0x591 JUMP JUMPDEST SWAP2 SWAP1 POP JUMP JUMPDEST PUSH1 0x0 PUSH8 0xFFFFFFFFFFFFFFFF DUP3 GT ISZERO PUSH2 0x5F8 JUMPI PUSH2 0x5F7 PUSH2 0x562 JUMP JUMPDEST JUMPDEST PUSH2 0x601 DUP3 PUSH2 0x551 JUMP JUMPDEST SWAP1 POP PUSH1 0x20 DUP2 ADD SWAP1 POP SWAP2 SWAP1 POP JUMP JUMPDEST DUP3 DUP2 DUP4 CALLDATACOPY PUSH1 0x0 DUP4 DUP4 ADD MSTORE POP POP POP JUMP JUMPDEST PUSH1 0x0 PUSH2 0x630 PUSH2 0x62B DUP5 PUSH2 0x5DD JUMP JUMPDEST PUSH2 0x5C2 JUMP JUMPDEST SWAP1 POP DUP3 DUP2 MSTORE PUSH1 0x20 DUP2 ADD DUP5 DUP5 DUP5 ADD GT ISZERO PUSH2 0x64C JUMPI PUSH2 0x64B PUSH2 0x54C JUMP JUMPDEST JUMPDEST PUSH2 0x657 DUP5 DUP3 DUP6 PUSH2 0x60E JUMP JUMPDEST POP SWAP4 SWAP3 POP POP POP JUMP JUMPDEST PUSH1 0x0 DUP3 PUSH1 0x1F DUP4 ADD SLT PUSH2 0x674 JUMPI PUSH2 0x673 PUSH2 0x547 JUMP JUMPDEST JUMPDEST DUP2 CALLDATALOAD PUSH2 0x684 DUP5 DUP3 PUSH1 0x20 DUP7 ADD PUSH2 0x61D JUMP JUMPDEST SWAP2 POP POP SWAP3 SWAP2 POP POP JUMP JUMPDEST PUSH1 0x0 PUSH1 0x20 DUP3 DUP5 SUB SLT ISZERO PUSH2 0x6A3 JUMPI PUSH2 0x6A2 PUSH2 0x53D JUMP JUMPDEST JUMPDEST PUSH1 0x0 DUP3 ADD CALLDATALOAD PUSH8 0xFFFFFFFFFFFFFFFF DUP2 GT ISZERO PUSH2 0x6C1 JUMPI PUSH2 0x6C0 PUSH2 0x542 JUMP JUMPDEST JUMPDEST PUSH2 0x6CD DUP5 DUP3 DUP6 ADD PUSH2 0x65F JUMP JUMPDEST SWAP2 POP POP SWAP3 SWAP2 POP POP JUMP JUMPDEST PUSH1 0x0 DUP2 SWAP1 POP SWAP2 SWAP1 POP JUMP JUMPDEST PUSH2 0x6E9 DUP2 PUSH2 0x6D6 JUMP JUMPDEST DUP2 EQ PUSH2 0x6F4 JUMPI PUSH1 0x0 DUP1 REVERT JUMPDEST POP JUMP JUMPDEST PUSH1 0x0 DUP2 CALLDATALOAD SWAP1 POP PUSH2 0x706 DUP2 PUSH2 0x6E0 JUMP JUMPDEST SWAP3 SWAP2 POP POP JUMP JUMPDEST PUSH1 0x0 PUSH1 0x20 DUP3 DUP5 SUB SLT ISZERO PUSH2 0x722 JUMPI PUSH2 0x721 PUSH2 0x53D JUMP JUMPDEST JUMPDEST PUSH1 0x0 PUSH2 0x730 DUP5 DUP3 DUP6 ADD PUSH2 0x6F7 JUMP JUMPDEST SWAP2 POP POP SWAP3 SWAP2 POP POP JUMP JUMPDEST PUSH2 0x742 DUP2 PUSH2 0x6D6 JUMP JUMPDEST DUP3 MSTORE POP POP JUMP JUMPDEST PUSH1 0x0 DUP2 MLOAD SWAP1 POP SWAP2 SWAP1 POP JUMP JUMPDEST PUSH1 0x0 DUP3 DUP3 MSTORE PUSH1 0x20 DUP3 ADD SWAP1 POP SWAP3 SWAP2 POP POP JUMP JUMPDEST PUSH1 0x0 JUMPDEST DUP4 DUP2 LT ISZERO PUSH2 0x782 JUMPI DUP1 DUP3 ADD MLOAD DUP2 DUP5 ADD MSTORE PUSH1 0x20 DUP2 ADD SWAP1 POP PUSH2 0x767 JUMP JUMPDEST PUSH1 0x0 DUP5 DUP5 ADD MSTORE POP POP POP POP JUMP JUMPDEST PUSH1 0x0 PUSH2 0x799 DUP3 PUSH2 0x748 JUMP JUMPDEST PUSH2 0x7A3 DUP2 DUP6 PUSH2 0x753 JUMP JUMPDEST SWAP4 POP PUSH2 0x7B3 DUP2 DUP6 PUSH1 0x20 DUP7 ADD PUSH2 0x764 JUMP JUMPDEST PUSH2 0x7BC DUP2 PUSH2 0x551 JUMP JUMPDEST DUP5 ADD SWAP2 POP POP SWAP3 SWAP2 POP POP JUMP JUMPDEST PUSH32 0x4E487B7100000000000000000000000000000000000000000000000000000000 PUSH1 0x0 MSTORE PUSH1 0x21 PUSH1 0x4 MSTORE PUSH1 0x24 PUSH1 0x0 REVERT JUMPDEST PUSH1 0x4 DUP2 LT PUSH2 0x807 JUMPI PUSH2 0x806 PUSH2 0x7C7 JUMP JUMPDEST JUMPDEST POP JUMP JUMPDEST PUSH1 0x0 DUP2 SWAP1 POP PUSH2 0x818 DUP3 PUSH2 0x7F6 JUMP JUMPDEST SWAP2 SWAP1 POP JUMP JUMPDEST PUSH1 0x0 PUSH2 0x828 DUP3 PUSH2 0x80A JUMP JUMPDEST SWAP1 POP SWAP2 SWAP1 POP JUMP JUMPDEST PUSH2 0x838 DUP2 PUSH2 0x81D JUMP JUMPDEST DUP3 MSTORE POP POP JUMP JUMPDEST PUSH1 0x0 PUSH1 0x60 DUP3 ADD SWAP1 POP PUSH2 0x853 PUSH1 0x0 DUP4 ADD DUP7 PUSH2 0x739 JUMP JUMPDEST DUP2 DUP2 SUB PUSH1 0x20 DUP4 ADD MSTORE PUSH2 0x865 DUP2 DUP6 PUSH2 0x78E JUMP JUMPDEST SWAP1 POP PUSH2 0x874 PUSH1 0x40 DUP4 ADD DUP5 PUSH2 0x82F JUMP JUMPDEST SWAP5 SWAP4 POP POP POP POP JUMP JUMPDEST PUSH1 0x0 PUSH1 0x20 DUP3 ADD SWAP1 POP PUSH2 0x891 PUSH1 0x0 DUP4 ADD DUP5 PUSH2 0x739 JUMP JUMPDEST SWAP3 SWAP2 POP POP JUMP JUMPDEST PUSH32 0x4E487B7100000000000000000000000000000000000000000000000000000000 PUSH1 0x0 MSTORE PUSH1 0x11 PUSH1 0x4 MSTORE PUSH1 0x24 PUSH1 0x0 REVERT JUMPDEST PUSH1 0x0 PUSH2 0x8D1 DUP3 PUSH2 0x6D6 JUMP JUMPDEST SWAP2 POP PUSH32 0xFFFFFFFFFFFFFFFFFFFFFFFFFFFFFFFFFFFFFFFFFFFFFFFFFFFFFFFFFFFFFFFF DUP3 SUB PUSH2 0x903 JUMPI PUSH2 0x902 PUSH2 0x897 JUMP JUMPDEST JUMPDEST PUSH1 0x1 DUP3 ADD SWAP1 POP SWAP2 SWAP1 POP JUMP JUMPDEST PUSH32 0x4E487B7100000000000000000000000000000000000000000000000000000000 PUSH1 0x0 MSTORE PUSH1 0x22 PUSH1 0x4 MSTORE PUSH1 0x24 PUSH1 0x0 REVERT JUMPDEST PUSH1 0x0 PUSH1 0x2 DUP3 DIV SWAP1 POP PUSH1 0x1 DUP3 AND DUP1 PUSH2 0x955 JUMPI PUSH1 0x7F DUP3 AND SWAP2 POP JUMPDEST PUSH1 0x20 DUP3 LT DUP2 SUB PUSH2 0x968 JUMPI PUSH2 0x967 PUSH2 0x90E JUMP JUMPDEST JUMPDEST POP SWAP2 SWAP1 POP JUMP JUMPDEST PUSH1 0x0 DUP2 SWAP1 POP DUP2 PUSH1 0x0 MSTORE PUSH1 0x20 PUSH1 0x0 KECCAK256 SWAP1 POP SWAP2 SWAP1 POP JUMP JUMPDEST PUSH1 0x0 PUSH1 0x20 PUSH1 0x1F DUP4 ADD DIV SWAP1 POP SWAP2 SWAP1 POP JUMP JUMPDEST PUSH1 0x0 DUP3 DUP3 SHL SWAP1 POP SWAP3 SWAP2 POP POP JUMP JUMPDEST PUSH1 0x0 PUSH1 0x8 DUP4 MUL PUSH2 0x9D0 PUSH32 0xFFFFFFFFFFFFFFFFFFFFFFFFFFFFFFFFFFFFFFFFFFFFFFFFFFFFFFFFFFFFFFFF DUP3 PUSH2 0x993 JUMP JUMPDEST PUSH2 0x9DA DUP7 DUP4 PUSH2 0x993 JUMP JUMPDEST SWAP6 POP DUP1 NOT DUP5 AND SWAP4 POP DUP1 DUP7 AND DUP5 OR SWAP3 POP POP POP SWAP4 SWAP3 POP POP POP JUMP JUMPDEST PUSH1 0x0 DUP2 SWAP1 POP SWAP2 SWAP1 POP JUMP JUMPDEST PUSH1 0x0 PUSH2 0xA17 PUSH2 0xA12 PUSH2 0xA0D DUP5 PUSH2 0x6D6 JUMP JUMPDEST PUSH2 0x9F2 JUMP JUMPDEST PUSH2 0x6D6 JUMP JUMPDEST SWAP1 POP SWAP2 SWAP1 POP JUMP JUMPDEST PUSH1 0x0 DUP2 SWAP1 POP SWAP2 SWAP1 POP JUMP JUMPDEST PUSH2 0xA31 DUP4 PUSH2 0x9FC JUMP JUMPDEST PUSH2 0xA45 PUSH2 0xA3D DUP3 PUSH2 0xA1E JUMP JUMPDEST DUP5 DUP5 SLOAD PUSH2 0x9A0 JUMP JUMPDEST DUP3 SSTORE POP POP POP POP JUMP JUMPDEST PUSH1 0x0 SWAP1 JUMP JUMPDEST PUSH2 0xA5A PUSH2 0xA4D JUMP JUMPDEST PUSH2 0xA65 DUP2 DUP5 DUP5 PUSH2 0xA28 JUMP JUMPDEST POP POP POP JUMP JUMPDEST JUMPDEST DUP2 DUP2 LT ISZERO PUSH2 0xA89 JUMPI PUSH2 0xA7E PUSH1 0x0 DUP3 PUSH2 0xA52 JUMP JUMPDEST PUSH1 0x1 DUP2 ADD SWAP1 POP PUSH2 0xA6B JUMP JUMPDEST POP POP JUMP JUMPDEST PUSH1 0x1F DUP3 GT ISZERO PUSH2 0xACE JUMPI PUSH2 0xA9F DUP2 PUSH2 0x96E JUMP JUMPDEST PUSH2 0xAA8 DUP5 PUSH2 0x983 JUMP JUMPDEST DUP2 ADD PUSH1 0x20 DUP6 LT ISZERO PUSH2 0xAB7 JUMPI DUP2 SWAP1 POP JUMPDEST PUSH2 0xACB PUSH2 0xAC3 DUP6 PUSH2 0x983 JUMP JUMPDEST DUP4 ADD DUP3 PUSH2 0xA6A JUMP JUMPDEST POP POP JUMPDEST POP POP POP JUMP JUMPDEST PUSH1 0x0 DUP3 DUP3 SHR SWAP1 POP SWAP3 SWAP2 POP POP JUMP JUMPDEST PUSH1 0x0 PUSH2 0xAF1 PUSH1 0x0 NOT DUP5 PUSH1 0x8 MUL PUSH2 0xAD3 JUMP JUMPDEST NOT DUP1 DUP4 AND SWAP2 POP POP SWAP3 SWAP2 POP POP JUMP JUMPDEST PUSH1 0x0 PUSH2 0xB0A DUP4 DUP4 PUSH2 0xAE0 JUMP JUMPDEST SWAP2 POP DUP3 PUSH1 0x2 MUL DUP3 OR SWAP1 POP SWAP3 SWAP2 POP POP JUMP JUMPDEST PUSH2 0xB23 DUP3 PUSH2 0x748 JUMP JUMPDEST PUSH8 0xFFFFFFFFFFFFFFFF DUP2 GT ISZERO PUSH2 0xB3C JUMPI PUSH2 0xB3B PUSH2 0x562 JUMP JUMPDEST JUMPDEST PUSH2 0xB46 DUP3 SLOAD PUSH2 0x93D JUMP JUMPDEST PUSH2 0xB51 DUP3 DUP3 DUP6 PUSH2 0xA8D JUMP JUMPDEST PUSH1 0x0 PUSH1 0x20 SWAP1 POP PUSH1 0x1F DUP4 GT PUSH1 0x1 DUP2 EQ PUSH2 0xB84 JUMPI PUSH1 0x0 DUP5 ISZERO PUSH2 0xB72 JUMPI DUP3 DUP8 ADD MLOAD SWAP1 POP JUMPDEST PUSH2 0xB7C DUP6 DUP3 PUSH2 0xAFE JUMP JUMPDEST DUP7 SSTORE POP PUSH2 0xBE4 JUMP JUMPDEST PUSH1 0x1F NOT DUP5 AND PUSH2 0xB92 DUP7 PUSH2 0x96E JUMP JUMPDEST PUSH1 0x0 JUMPDEST DUP3 DUP2 LT ISZERO PUSH2 0xBBA JUMPI DUP5 DUP10 ADD MLOAD DUP3 SSTORE PUSH1 0x1 DUP3 ADD SWAP2 POP PUSH1 0x20 DUP6 ADD SWAP5 POP PUSH1 0x20 DUP2 ADD SWAP1 POP PUSH2 0xB95 JUMP JUMPDEST DUP7 DUP4 LT ISZERO PUSH2 0xBD7 JUMPI DUP5 DUP10 ADD MLOAD PUSH2 0xBD3 PUSH1 0x1F DUP10 AND DUP3 PUSH2 0xAE0 JUMP JUMPDEST DUP4 SSTORE POP JUMPDEST PUSH1 0x1 PUSH1 0x2 DUP9 MUL ADD DUP9 SSTORE POP POP POP JUMPDEST POP POP POP POP POP POP JUMP JUMPDEST PUSH1 0x0 PUSH1 0x40 DUP3 ADD SWAP1 POP PUSH2 0xC01 PUSH1 0x0 DUP4 ADD DUP6 PUSH2 0x739 JUMP JUMPDEST PUSH2 0xC0E PUSH1 0x20 DUP4 ADD DUP5 PUSH2 0x82F JUMP JUMPDEST SWAP4 SWAP3 POP POP POP JUMP INVALID LOG2 PUSH5 0x6970667358 0x22 SLT KECCAK256 BLOBHASH 0xB4 BLOBHASH 0xBB 0x4C 0xB7 0xE3 0xA8 PUSH10 0xF93F282C728D9DDA20F0 0xA9 0xF6 0xB8 MLOAD AND RETURNDATASIZE 0xFC 0xC6 DUP8 0xF7 0xF9 CALLDATACOPY PUSH17 0x64736F6C634300081C0033000000000000 "
        },
        "methodIdentifiers": {
          "cancel(uint256)": "40e58ee5",
          "createTask(string)": "111002aa",
          "finish(uint256)": "d353a1cb",
          "getStatus(uint256)": "5c622a0e",
          "handling(uint256)": "cf20311a",
          "taskCount()": "b6cb58a5",
          "tasks(uint256)": "8d977672"
        }
      }
    }
  }
}